{
  "_format": "hh-sol-artifact-1",
  "contractName": "PatientPortal",
  "sourceName": "contracts/PatientPortal.sol",
  "abi": [
    {
      "inputs": [],
      "stateMutability": "nonpayable",
      "type": "constructor"
    },
    {
      "inputs": [
        {
          "internalType": "string",
          "name": "",
          "type": "string"
        },
        {
          "internalType": "string",
          "name": "",
          "type": "string"
        }
      ],
      "name": "RetrieveUserRecords",
      "outputs": [
        {
          "internalType": "string",
          "name": "Name",
          "type": "string"
        },
        {
          "internalType": "uint256",
          "name": "Age",
          "type": "uint256"
        },
        {
          "internalType": "string",
          "name": "Gender",
          "type": "string"
        },
        {
          "internalType": "uint256",
          "name": "Aadhar_no",
          "type": "uint256"
        },
        {
          "internalType": "uint256",
          "name": "Height",
          "type": "uint256"
        },
        {
          "internalType": "uint256",
          "name": "Weight",
          "type": "uint256"
        },
        {
          "internalType": "uint256",
          "name": "AmountPayable",
          "type": "uint256"
        }
      ],
      "stateMutability": "view",
      "type": "function"
    },
    {
      "inputs": [
        {
          "internalType": "string",
          "name": "_userID",
          "type": "string"
        },
        {
          "internalType": "string",
          "name": "_password",
          "type": "string"
        },
        {
          "internalType": "string",
          "name": "_Name",
          "type": "string"
        },
        {
          "internalType": "uint256",
          "name": "_Age",
          "type": "uint256"
        },
        {
          "internalType": "string",
          "name": "_Gender",
          "type": "string"
        },
        {
          "internalType": "uint256",
          "name": "_Aadhar_no",
          "type": "uint256"
        },
        {
          "internalType": "uint256",
          "name": "_Height",
          "type": "uint256"
        },
        {
          "internalType": "uint256",
          "name": "_Weight",
          "type": "uint256"
        },
        {
          "internalType": "uint256",
          "name": "_AmountPayable",
          "type": "uint256"
        }
      ],
      "name": "addPatient",
      "outputs": [],
      "stateMutability": "nonpayable",
      "type": "function"
    },
    {
      "inputs": [
        {
          "internalType": "string",
          "name": "name",
          "type": "string"
        },
        {
          "internalType": "string",
          "name": "message",
          "type": "string"
        }
      ],
      "name": "fund_hospital",
      "outputs": [],
      "stateMutability": "payable",
      "type": "function"
    },
    {
      "inputs": [],
      "name": "viewTransactions",
      "outputs": [
        {
          "components": [
            {
              "internalType": "string",
              "name": "Name",
              "type": "string"
            },
            {
              "internalType": "string",
              "name": "Message",
              "type": "string"
            },
            {
              "internalType": "address",
              "name": "from",
              "type": "address"
            }
          ],
          "internalType": "struct PatientPortal.transactions[]",
          "name": "",
          "type": "tuple[]"
        }
      ],
      "stateMutability": "view",
      "type": "function"
    }
  ],
  "bytecode": "0x60806040527313614ae805684c0d5a719d647498b61ca5bb649a600160006101000a81548173ffffffffffffffffffffffffffffffffffffffff021916908373ffffffffffffffffffffffffffffffffffffffff16021790555034801561006557600080fd5b50336000806101000a81548173ffffffffffffffffffffffffffffffffffffffff021916908373ffffffffffffffffffffffffffffffffffffffff1602179055506114ad806100b56000396000f3fe60806040526004361061003f5760003560e01c8063031dc81b146100445780633a30e4df1461006d578063c2720ad5146100b0578063f89f2487146100cc575b600080fd5b34801561005057600080fd5b5061006b60048036038101906100669190610ae4565b6100f7565b005b34801561007957600080fd5b50610094600480360381019061008f9190610c1e565b610356565b6040516100a79796959493929190610d24565b60405180910390f35b6100ca60048036038101906100c59190610e01565b6104e1565b005b3480156100d857600080fd5b506100e16106ed565b6040516100ee9190611026565b60405180910390f35b60008054906101000a900473ffffffffffffffffffffffffffffffffffffffff1673ffffffffffffffffffffffffffffffffffffffff163373ffffffffffffffffffffffffffffffffffffffff1614610185576040517f08c379a000000000000000000000000000000000000000000000000000000000815260040161017c906110ba565b60405180910390fd5b60036040518061012001604052808b81526020018a8152602001898152602001888152602001878152602001868152602001858152602001848152602001838152509080600181540180825580915050600190039060005260206000209060090201600090919091909150600082015181600001908161020591906112e6565b50602082015181600101908161021b91906112e6565b50604082015181600201908161023191906112e6565b5060608201518160030155608082015181600401908161025191906112e6565b5060a0820151816005015560c0820151816006015560e08201518160070155610100820151816008015550506040518060e001604052808881526020018781526020018681526020018581526020018481526020018381526020018281525060028a6040516102c091906113f4565b9081526020016040518091039020896040516102dc91906113f4565b908152602001604051809103902060008201518160000190816102ff91906112e6565b5060208201518160010155604082015181600201908161031f91906112e6565b50606082015181600301556080820151816004015560a0820151816005015560c08201518160060155905050505050505050505050565b60028280516020810182018051848252602083016020850120818352809550505050505081805160208101820180518482526020830160208501208183528095505050505050600091509150508060000180546103b290611109565b80601f01602080910402602001604051908101604052809291908181526020018280546103de90611109565b801561042b5780601f106104005761010080835404028352916020019161042b565b820191906000526020600020905b81548152906001019060200180831161040e57829003601f168201915b50505050509080600101549080600201805461044690611109565b80601f016020809104026020016040519081016040528092919081815260200182805461047290611109565b80156104bf5780601f10610494576101008083540402835291602001916104bf565b820191906000526020600020905b8154815290600101906020018083116104a257829003601f168201915b5050505050908060030154908060040154908060050154908060060154905087565b6000341015610525576040517f08c379a000000000000000000000000000000000000000000000000000000000815260040161051c90611457565b60405180910390fd5b600160009054906101000a900473ffffffffffffffffffffffffffffffffffffffff1673ffffffffffffffffffffffffffffffffffffffff166108fc349081150290604051600060405180830381858888f1935050505015801561058d573d6000803e3d6000fd5b506004604051806060016040528086868080601f016020809104026020016040519081016040528093929190818152602001838380828437600081840152601f19601f82011690508083019250505050505050815260200184848080601f016020809104026020016040519081016040528093929190818152602001838380828437600081840152601f19601f8201169050808301925050505050505081526020013373ffffffffffffffffffffffffffffffffffffffff168152509080600181540180825580915050600190039060005260206000209060030201600090919091909150600082015181600001908161068791906112e6565b50602082015181600101908161069d91906112e6565b5060408201518160020160006101000a81548173ffffffffffffffffffffffffffffffffffffffff021916908373ffffffffffffffffffffffffffffffffffffffff160217905550505050505050565b606060008054906101000a900473ffffffffffffffffffffffffffffffffffffffff1673ffffffffffffffffffffffffffffffffffffffff163373ffffffffffffffffffffffffffffffffffffffff161461077d576040517f08c379a0000000000000000000000000000000000000000000000000000000008152600401610774906110ba565b60405180910390fd5b6004805480602002602001604051908101604052809291908181526020016000905b8282101561094b57838290600052602060002090600302016040518060600160405290816000820180546107d290611109565b80601f01602080910402602001604051908101604052809291908181526020018280546107fe90611109565b801561084b5780601f106108205761010080835404028352916020019161084b565b820191906000526020600020905b81548152906001019060200180831161082e57829003601f168201915b5050505050815260200160018201805461086490611109565b80601f016020809104026020016040519081016040528092919081815260200182805461089090611109565b80156108dd5780601f106108b2576101008083540402835291602001916108dd565b820191906000526020600020905b8154815290600101906020018083116108c057829003601f168201915b505050505081526020016002820160009054906101000a900473ffffffffffffffffffffffffffffffffffffffff1673ffffffffffffffffffffffffffffffffffffffff1673ffffffffffffffffffffffffffffffffffffffff16815250508152602001906001019061079f565b50505050905090565b6000604051905090565b600080fd5b600080fd5b600080fd5b600080fd5b6000601f19601f8301169050919050565b7f4e487b7100000000000000000000000000000000000000000000000000000000600052604160045260246000fd5b6109bb82610972565b810181811067ffffffffffffffff821117156109da576109d9610983565b5b80604052505050565b60006109ed610954565b90506109f982826109b2565b919050565b600067ffffffffffffffff821115610a1957610a18610983565b5b610a2282610972565b9050602081019050919050565b82818337600083830152505050565b6000610a51610a4c846109fe565b6109e3565b905082815260208101848484011115610a6d57610a6c61096d565b5b610a78848285610a2f565b509392505050565b600082601f830112610a9557610a94610968565b5b8135610aa5848260208601610a3e565b91505092915050565b6000819050919050565b610ac181610aae565b8114610acc57600080fd5b50565b600081359050610ade81610ab8565b92915050565b60008060008060008060008060006101208a8c031215610b0757610b0661095e565b5b60008a013567ffffffffffffffff811115610b2557610b24610963565b5b610b318c828d01610a80565b99505060208a013567ffffffffffffffff811115610b5257610b51610963565b5b610b5e8c828d01610a80565b98505060408a013567ffffffffffffffff811115610b7f57610b7e610963565b5b610b8b8c828d01610a80565b9750506060610b9c8c828d01610acf565b96505060808a013567ffffffffffffffff811115610bbd57610bbc610963565b5b610bc98c828d01610a80565b95505060a0610bda8c828d01610acf565b94505060c0610beb8c828d01610acf565b93505060e0610bfc8c828d01610acf565b925050610100610c0e8c828d01610acf565b9150509295985092959850929598565b60008060408385031215610c3557610c3461095e565b5b600083013567ffffffffffffffff811115610c5357610c52610963565b5b610c5f85828601610a80565b925050602083013567ffffffffffffffff811115610c8057610c7f610963565b5b610c8c85828601610a80565b9150509250929050565b600081519050919050565b600082825260208201905092915050565b60005b83811015610cd0578082015181840152602081019050610cb5565b60008484015250505050565b6000610ce782610c96565b610cf18185610ca1565b9350610d01818560208601610cb2565b610d0a81610972565b840191505092915050565b610d1e81610aae565b82525050565b600060e0820190508181036000830152610d3e818a610cdc565b9050610d4d6020830189610d15565b8181036040830152610d5f8188610cdc565b9050610d6e6060830187610d15565b610d7b6080830186610d15565b610d8860a0830185610d15565b610d9560c0830184610d15565b98975050505050505050565b600080fd5b600080fd5b60008083601f840112610dc157610dc0610968565b5b8235905067ffffffffffffffff811115610dde57610ddd610da1565b5b602083019150836001820283011115610dfa57610df9610da6565b5b9250929050565b60008060008060408587031215610e1b57610e1a61095e565b5b600085013567ffffffffffffffff811115610e3957610e38610963565b5b610e4587828801610dab565b9450945050602085013567ffffffffffffffff811115610e6857610e67610963565b5b610e7487828801610dab565b925092505092959194509250565b600081519050919050565b600082825260208201905092915050565b6000819050602082019050919050565b600082825260208201905092915050565b6000610eca82610c96565b610ed48185610eae565b9350610ee4818560208601610cb2565b610eed81610972565b840191505092915050565b600073ffffffffffffffffffffffffffffffffffffffff82169050919050565b6000610f2382610ef8565b9050919050565b610f3381610f18565b82525050565b60006060830160008301518482036000860152610f568282610ebf565b91505060208301518482036020860152610f708282610ebf565b9150506040830151610f856040860182610f2a565b508091505092915050565b6000610f9c8383610f39565b905092915050565b6000602082019050919050565b6000610fbc82610e82565b610fc68185610e8d565b935083602082028501610fd885610e9e565b8060005b858110156110145784840389528151610ff58582610f90565b945061100083610fa4565b925060208a01995050600181019050610fdc565b50829750879550505050505092915050565b600060208201905081810360008301526110408184610fb1565b905092915050565b7f4f6e6c79207468652061646d696e697374726174696f722063616e206164642060008201527f757365722070726f66696c657300000000000000000000000000000000000000602082015250565b60006110a4602d83610ca1565b91506110af82611048565b604082019050919050565b600060208201905081810360008301526110d381611097565b9050919050565b7f4e487b7100000000000000000000000000000000000000000000000000000000600052602260045260246000fd5b6000600282049050600182168061112157607f821691505b602082108103611134576111336110da565b5b50919050565b60008190508160005260206000209050919050565b60006020601f8301049050919050565b600082821b905092915050565b60006008830261119c7fffffffffffffffffffffffffffffffffffffffffffffffffffffffffffffffff8261115f565b6111a6868361115f565b95508019841693508086168417925050509392505050565b6000819050919050565b60006111e36111de6111d984610aae565b6111be565b610aae565b9050919050565b6000819050919050565b6111fd836111c8565b611211611209826111ea565b84845461116c565b825550505050565b600090565b611226611219565b6112318184846111f4565b505050565b5b818110156112555761124a60008261121e565b600181019050611237565b5050565b601f82111561129a5761126b8161113a565b6112748461114f565b81016020851015611283578190505b61129761128f8561114f565b830182611236565b50505b505050565b600082821c905092915050565b60006112bd6000198460080261129f565b1980831691505092915050565b60006112d683836112ac565b9150826002028217905092915050565b6112ef82610c96565b67ffffffffffffffff81111561130857611307610983565b5b6113128254611109565b61131d828285611259565b600060209050601f831160018114611350576000841561133e578287015190505b61134885826112ca565b8655506113b0565b601f19841661135e8661113a565b60005b8281101561138657848901518255600182019150602085019450602081019050611361565b868310156113a3578489015161139f601f8916826112ac565b8355505b6001600288020188555050505b505050505050565b600081905092915050565b60006113ce82610c96565b6113d881856113b8565b93506113e8818560208601610cb2565b80840191505092915050565b600061140082846113c3565b915081905092915050565b7f596f752772652062726f6b650000000000000000000000000000000000000000600082015250565b6000611441600c83610ca1565b915061144c8261140b565b602082019050919050565b6000602082019050818103600083015261147081611434565b905091905056fea26469706673582212204b99137c4a94dec26d62c238a594ecb66a084c56bc732128aad4cf1821072d1c64736f6c63430008130033",
  "linkReferences": {},
  "deployedLinkReferences": {}
}